:020000040800F2
:10000000D0C70120AD010008F5660008A51E000854
:10001000F1660008E9070008978D0008000000005D
:100020000000000000000000000000002987000818
:10003000351900080000000085670008F5890008F0
:10004000C7010008C7010008C7010008C701000870
:10005000C7010008C7010008C7010008C701000860
:10006000C7010008C7010008C7010008C701000850
:10007000C7010008C7010008C70100087D16000875
:10008000C7010008C7010008C7010008C701000830
:10009000C7010008C7010008C7010008C701000820
:1000A000C7010008C7010008C7010008C701000810
:1000B000C7010008C7010008C7010008C701000800
:1000C000C7010008C7010008C7010008C7010008F0
:1000D000C7010008798B0008C7010008C7010008A4
:1000E000C7010008C7010008C7010008C7010008D0
:1000F000C7010008C7010008C7010008C7010008C0
:10010000C7010008196A0008C7010008C7010008F4
:10011000C7010008C7010008C7010008C70100089F
:10012000C7010008C7010008C7010008C70100088F
:10013000C7010008C7010008C7010008C70100087F
:10014000C7010008C7010008C7010008C70100086F
:10015000C7010008C7010008C7010008C70100085F
:10016000C7010008C7010008C7010008C70100084F
:10017000C7010008C7010008C7010008C70100083F
:10018000C7010008C7010008DFF80CD000F0CEFA64
:100190000048004725AA0008D0C7012030BF72B62A
:1001A000704762B6704780F30888704706488047FA
:1001B00006480047FEE7FEE7FEE7FEE7FEE7FEE74C
:1001C000FEE7FEE7FEE7FEE7198A0008890100085E
:1001D00040EA01039B0703D009E008C9121F08C0C9
:1001E000042AFAD203E011F8013B00F8013B521E49
:1001F000F9D27047034611F8012B00F8012B002AB1
:10020000F9D1184670472DE9FE4F81EA030404F046
:10021000004421F0004100944FF0000B23F0004314
:1002200050EA01045ED052EA03045BD0C3F30A54DF
:10023000C1F30A552C44A4F2F3340194A0FB0254F8
:10024000C1F3130141F48011C3F3130343F480138A
:1002500001FB024400FB034E840A970A44EA8154DE
:1002600047EA8357A4FB076802958D0A05FB0785BB
:100270004FEA932C04FB0C542705029D4FEA0658C5
:1002800047EA1637B5EB08056EEB070C870E920EA2
:1002900047EA811742EA8312A7FB0201B6EB0B0182
:1002A00064EB00042B0D43EA0C335E1844EB1C5046
:1002B000DA465146E7FB0201C5F313044FEA0B335C
:1002C00043EA14534FEA0432019C43EA0603A4F1C3
:1002D0000C040294009CCDE900B400F092F803B045
:1002E000BDE8F08F00200146F9E70EB540F233413A
:1002F00002910021CDE900110A460B4600F081F879
:1003000003B000BDC1F30A5210B5C1F3130140F2AE
:10031000FF3341F480119A4201DA002010BD40F20F
:1003200033439A42A2F2334203DC524200F04AF8CD
:1003300010BD904010BD30B50B4601460020202274
:10034000012409E021FA02F59D4205D303FA02F5E2
:10035000491B04FA02F52844151EA2F10102F1DC42
:1003600030BD2DE9F05F0546002092469B46884649
:100370000646814640241BE0284641464746224621
:1003800000F020F853465A46C01A914110D3114646
:100390001846224600F0DCF92D1A67EB01084F469B
:1003A00022460120002100F0D3F917EB00094E414D
:1003B000201EA4F10104DFDC484631462A464346AC
:1003C000BDE8F09F202A04DB203A21FA02F0002148
:1003D000704721FA02F3D040C2F120029140084355
:1003E0001946704710B5141E73F1000408DA401C5A
:1003F00041F1000192185B411A4301D120F0010044
:1004000010BD2DE9F04D92469B4611B1B1FA81F233
:1004100002E0B0FA80F22032904600F099F90446EA
:100420000F4640EA0A0041EA0B0153465A46084388
:1004300013D0114653EA010019D0C8F140025046CA
:10044000FFF7C0FF05460E4650465946424600F0AB
:100450007FF9084305D0012004E020463946BDE875
:10046000F08D0020054346EAE0762C4337430A9896
:100470006305E40AA0EB08000022FD0A44EA4754A1
:100480000A3002D500200146E9E70105101969414B
:10049000DDE9084500196941BDE8F04DA2E72DE905
:1004A000FE4F804681EA0300C00F0C46009021F009
:1004B000004123F00045B8EB0200A94105D24046B7
:1004C000214690461C460B46024623F0004010434E
:1004D00047D0270DC7F30A00C3F30A510290401A10
:1004E000019040286BDAC3F3130040F4801B00989E
:1004F000924620B10023D2EB030A63EB0B0B019869
:100500005946C0F14002504600F022F906460D4619
:1005100050465946019A00F02AF910EB0800614153
:10052000002487EA115284EAE7731A4340D0009A04
:1005300062B3019A012A4FEA075215DC001B61EBF6
:1005400002014FF0004202EA0752CDE90042001CCE
:1005500041F5801132462B46FFF753FF03B0BDE84B
:10056000F08F40462146F9E7001B61EB0201001CB9
:1005700041F5801300185B412018A2F5001747EBE6
:10058000030140EAD570B6196D4111E06D084FEADC
:10059000360645EAC0754FEA0752001B61EB0201BF
:1005A000001C41F5801149084FEA30000019514103
:1005B00032462B4603B0BDE8F04FFFF713BF00985B
:1005C000012240000023D0EB020263EBE0730098AD
:1005D00021464FEAE074B8EB000061EB0401E9E763
:1005E00083F000435BE781F0004158E72DE9F04DCF
:1005F00081EA030404F0004B21F0004514464FF05B
:10060000000A23F0004150EA050220D054EA01021A
:100610001DD0C5F30A570246C5F31303C1F31300F7
:10062000C1F30A5640F4801543F48013A7EB060883
:10063000101BD64608F2FD3873EB050002D308F113
:10064000010801E092185B41B8F1000F03DA0020C5
:100650000146BDE8F08D00204FF480110646844627
:100660000EE0171B73EB050705D3121B63EB0503A5
:1006700006434CEA010C49084FEA300092185B41EE
:1006800050EA0107EDD152EA030012D082EA0400D9
:1006900083EA0501084305D0101BAB4106D20122B5
:1006A000002306E000224FF0004302E06FF0010259
:1006B00053101AEB06004CEB085110EB0A0041EB0B
:1006C0000B01BDE8F04DFFF78DBEC1F30A52C1F337
:1006D000130140F2FF3341F480119A4202DA002004
:1006E0000146704740F233439A42A2F2334202DCA1
:1006F0005242FFF767BE00F02BB8000030B5041E71
:1007000071F1000404DB4FF00044404264EB01014E
:10071000141E73F1000405DB1C464FF000435242E7
:1007200063EB0403994208BF904230BD064C074D6D
:1007300006E0E06840F0010394E8070098471034B1
:10074000AC42F6D3FFF724FD20C9000840C90008D9
:10075000202A04DB203A00FA02F100207047914081
:10076000C2F1200320FA03F3194390407047202A76
:1007700006DBCB17203A41FA02F043EAE07306E0C9
:1007800041FA02F3D040C2F12002914008431946D9
:10079000704770B58C1810F8015B15F0070301D194
:1007A00010F8013B2A1106D110F8012B03E010F8D4
:1007B000016B01F8016B5B1EF9D12B0705D40023F7
:1007C000521E0DD401F8013BFAE710F8013BCB1A99
:1007D000921C03E013F8015B01F8015B521EF9D58E
:1007E000A142D8D3002070BD00BFFEE710B500BF06
:1007F0000AA007F09AFF00BF0D48406828B90DA273
:10080000D62110A008F0FAFE10BD094800220121EF
:1008100043680846984700BFF6E7000042757474C5
:100820006F6E203120436C69636B200D0A0000005D
:10083000300100206E6F7420737570706F727420B9
:1008400000000000666174616C206572726F722036
:10085000212121202C66756E6320707274206E75C4
:100860006C6C206174206C696E65202564205B25AA
:10087000735D0D0A0000000010B50948406830B9EA
:1008800008A240F233110BA008F0B8FE10BD0448D6
:100890000022022143680120984700BFF6E70000CC
:1008A000300100206E6F7420737570706F72742049
:1008B00000000000666174616C206572726F7220C6
:1008C000212121202C66756E6320707274206E7554
:1008D0006C6C206174206C696E65202564205B253A
:1008E000735D0D0A0000000010B50848406828B983
:1008F00007A233210AA008F081FE10BD03480022A0
:10090000032143680120984700BFF6E7300100202B
:100910006E6F7420737570706F7274200000000029
:10092000666174616C206572726F722021212120D2
:100930002C66756E6320707274206E756C6C20610D
:1009400074206C696E65202564205B25735D0D0A3B
:10095000000000007047000010B500BF0AA007F0BB
:10096000E4FE00BF0D48406828B90DA2DD2110A0AB
:1009700008F044FE10BD094800220121436802200E
:10098000984700BFF6E70000427574746F6E20321E
:1009900020436C69636B200D0A00000030010020C9
:1009A0006E6F7420737570706F7274200000000099
:1009B000666174616C206572726F72202121212042
:1009C0002C66756E6320707274206E756C6C20617D
:1009D00074206C696E65202564205B25735D0D0AAB
:1009E0000000000010B50948406830B908A24FF473
:1009F0009D710BA008F002FE10BD044800220221E8
:100A000043680846984700BFF6E700003001002021
:100A10006E6F7420737570706F7274200000000028
:100A2000666174616C206572726F722021212120D1
:100A30002C66756E6320707274206E756C6C20610C
:100A400074206C696E65202564205B25735D0D0A3A
:100A50000000000010B50848406828B907A23921F5
:100A60000AA008F0CBFD10BD034800220321436813
:100A70000220984700BFF6E7300100206E6F742017
:100A8000737570706F72742000000000666174618D
:100A90006C206572726F7220212121202C66756E88
:100AA0006320707274206E756C6C206174206C69A8
:100AB0006E65202564205B25735D0D0A0000000033
:100AC0007047000010B500BF0AA007F02EFE00BF5F
:100AD0000D48406828B90DA2E42110A008F08EFD51
:100AE00010BD09480022012143680320984700BF38
:100AF000F6E70000427574746F6E203320436C6912
:100B0000636B200D0A000000300100206E6F74201E
:100B1000737570706F7274200000000066617461FC
:100B20006C206572726F7220212121202C66756EF7
:100B30006320707274206E756C6C206174206C6917
:100B40006E65202564205B25735D0D0A00000000A2
:100B500010B50948406830B908A24FF4A1710BA044
:100B600008F04CFD10BD0448002202214368032018
:100B7000984700BFF6E70000300100206E6F742038
:100B8000737570706F72742000000000666174618C
:100B90006C206572726F7220212121202C66756E87
:100BA0006320707274206E756C6C206174206C69A7
:100BB0006E65202564205B25735D0D0A0000000032
:100BC00010B50848406828B907A240210AA008F0DB
:100BD00015FD10BD034800220321436808469847CD
:100BE00000BFF6E7300100206E6F742073757070DF
:100BF0006F72742000000000666174616C20657281
:100C0000726F7220212121202C66756E6320707214
:100C100074206E756C6C206174206C696E65202583
:100C200064205B25735D0D0A000000007047000022
:100C300010B500BF0AA007F078FD00BF0D4840685E
:100C400028B90DA2EC2110A008F0D8FC10BD09486D
:100C50000022012143680420984700BFF6E7000006
:100C6000427574746F6E203420436C69636B200D81
:100C70000A000000300100206E6F742073757070E0
:100C80006F72742000000000666174616C206572F0
:100C9000726F7220212121202C66756E6320707284
:100CA00074206E756C6C206174206C696E652025F3
:100CB00064205B25735D0D0A0000000010B5094833
:100CC000406830B908A24FF4A5710BA008F096FC5B
:100CD00010BD04480022022143680420984700BF49
:100CE000F6E70000300100206E6F7420737570709D
:100CF0006F72742000000000666174616C20657280
:100D0000726F7220212121202C66756E6320707213
:100D100074206E756C6C206174206C696E65202582
:100D200064205B25735D0D0A0000000010B50848C3
:100D3000406828B907A247210AA008F05FFC10BD4F
:100D400003480022032143680420984700BFF6E7C8
:100D5000300100206E6F7420737570706F72742094
:100D600000000000666174616C206572726F722011
:100D7000212121202C66756E6320707274206E759F
:100D80006C6C206174206C696E65202564205B2585
:100D9000735D0D0A000000007047000010B50848A0
:100DA000406828B907A2F8210AA008F027FC10BD66
:100DB00003480022012143680520984700BFF6E759
:100DC000300100206E6F7420737570706F72742024
:100DD00000000000666174616C206572726F7220A1
:100DE000212121202C66756E6320707274206E752F
:100DF0006C6C206174206C696E65202564205B2515
:100E0000735D0D0A0000000010B50948406830B954
:100E100008A24FF4A9710BA008F0F0FB10BD044824
:100E20000022022143680520984700BFF6E7000032
:100E3000300100206E6F7420737570706F727420B3
:100E400000000000666174616C206572726F722030
:100E5000212121202C66756E6320707274206E75BE
:100E60006C6C206174206C696E65202564205B25A4
:100E7000735D0D0A0000000010B50848406828B9ED
:100E800007A24D210AA008F0B9FB10BD03480022BB
:100E9000032143680520984700BFF6E73001002092
:100EA0006E6F7420737570706F7274200000000094
:100EB000666174616C206572726F7220212121203D
:100EC0002C66756E6320707274206E756C6C206178
:100ED00074206C696E65202564205B25735D0D0AA6
:100EE000000000007047000010B50948406830B9A4
:100EF00008A240F207110BA008F080FB10BD0448C7
:100F00000022012143680620984700BFF6E7000051
:100F1000300100206E6F7420737570706F727420D2
:100F200000000000666174616C206572726F72204F
:100F3000212121202C66756E6320707274206E75DD
:100F40006C6C206174206C696E65202564205B25C3
:100F5000735D0D0A0000000010B50948406830B903
:100F600008A240F25D110BA008F048FB10BD044838
:100F70000022022143680620984700BFF6E70000E0
:100F8000300100206E6F7420737570706F72742062
:100F900000000000666174616C206572726F7220DF
:100FA000212121202C66756E6320707274206E756D
:100FB0006C6C206174206C696E65202564205B2553
:100FC000735D0D0A0000000010B50848406828B99C
:100FD00007A253210AA008F011FB10BD034800220C
:100FE000032143680620984700BFF6E73001002040
:100FF0006E6F7420737570706F7274200000000043
:10100000666174616C206572726F722021212120EB
:101010002C66756E6320707274206E756C6C206126
:1010200074206C696E65202564205B25735D0D0A54
:10103000000000007047000000200349087048705D
:101040008870C8707047000080BE012010B504464B
:101050002068006938B11748007820B1154A107827
:101060002268116988472068406938B11148407882
:1010700020B1104A507822685169884720688069F9
:1010800038B10C48807820B10A4A9078226891697A
:1010900088472068C06948B10648C07830B1054922
:1010A000C8782168CA690349091D9047FFF7C4FF42
:1010B00010BD000080BE012070B505460C461646E6
:1010C00035B1012D0CD0022D12D0032D27D117E000
:1010D00014490878214609F0B4FE124908701FE04F
:1010E00010494878214609F0ACFE0E49487017E0D7
:1010F0000C498878214609F0A4FE0A4988700FE05F
:101100000849C878214609F09CFE0649C870082C99
:1011100000DB05E00348001D20F8146000E000BF7C
:1011200000BF70BD80BE012070B505460E4629681F
:10113000886880471A49087016B1084600783070F0
:1011400018480560002423E0174800EB04104470A1
:1011500021461348007809F06BFE012800D100E019
:101160000020124908602B681A6A0F4B03EB041128
:1011700005F1080353F8240009F0FFFB0A4901EBCD
:101180000411081D0949096807F0D4FC601CC4B2A9
:101190002879A042D8DC2846FFF758FF70BD000030
:1011A000580100205C01002094BE01205401002061
:1011B0000149816070470000ECC7000810B509487C
:1011C000006830B908A206210BA008F017FA002029
:1011D00010BD04480168884708B90020F8E70120DD
:1011E000F6E70000300100206E6F74207375707098
:1011F0006F72742000000000666174616C2065727B
:10120000726F7220212121202C66756E632070720E
:1012100074206E756C6C206174206C696E6520257D
:1012200064205B25735D0D0A0000000010B50446C4
:1012300000BF0348806810B101498868804710BD2D
:101240003001002000B970470188818000210180B1
:1012500000BFF8E700B970470021418000BFFAE7FE
:1012600070B5054600240DE00120A040284038B1AB
:10127000064850F8240018B1044951F8240080476A
:10128000601CC4B2062CEFD370BD0000BCC70008C0
:1012900070B500254FF4803404E0802005F0A8FBF1
:1012A00000B103E0201EA4F10104F6D100BF0CB987
:1012B000032070BD40F2FF5005F070FB2846F8E7B0
:1012C00070B5044605E01648056805F0450000B114
:1012D00000E0F8E700BF042005F08AFB20B10420FD
:1012E00005F05CFB032070BD012005F081FB20B1FF
:1012F000012005F053FB0120F5E709482438006878
:10130000A04201D01020EEE740F2FF5005F046FB6E
:1013100003482038006808210840C0B2E3E7000015
:10132000342C014070B500264FF4803505E011489B
:10133000046804F0450000B103E0281EA5F1010592
:10134000F5D100BF15B104F0040028B10326042034
:1013500005F024FB304670BD012005F049FB18B1B3
:101360000126012005F01AFB40F2FF5005F016FBA4
:101370003046F0E7342C014010B505E00B48046816
:1013800004F0450000B100E0F8E700BF042005F0DC
:101390002FFB20B1042005F001FB032010BD40F21B
:1013A000FF5005F0FBFA0020F8E70000342C014064
:1013B0002DE9F04105460E464FF0000805E02048B3
:1013C000076807F0450000B100E0F8E700BF04201F
:1013D00005F00EFB28B1042005F0E0FA0320BDE87B
:1013E000F081012005F004FB20B1012005F0D6FAC0
:1013F0000120F4E7124824380068A84201D01020E8
:10140000EDE740F2FF5005F0C9FA0D4820380468B6
:1014100004F4604018B9200C30804046DFE704F443
:10142000005008B11320DAE704F4804008B110201E
:10143000D5E704F4004008B10F20D0E74046CEE7DE
:10144000342C014070B500264FF4803505E00F487C
:10145000046804F0450000B103E0281EA5F1010571
:10146000F5D100BF15B104F0040028B10326042013
:1014700005F094FA304670BD04F0400018B1002623
:10148000402005F08BFA3046F5E70000342C01408F
:1014900010B5014609B9002010BD01F10C024868E1
:1014A00008B90020F8E7002007E0002302F83030F8
:1014B00002EBC0046360431CD8B20328F5DB0120B3
:1014C000EAE770B504462546281D00F065FA0128B4
:1014D00004D1281DFFF7B6FE032070BD281D00F0C3
:1014E00043FA012800D1F8E72078F6E770B5044602
:1014F000254668780C4909680979884201DB002093
:1015000070BD281D00F030FA012801D10920F7E74D
:10151000281D00F041FA012804D1281DFFF792FE92
:101520000820EDE72078EBE75C01002070B5044669
:10153000254668780B4909680979884201DB002053
:1015400070BD281D00F040FA012801D10A20F7E7FC
:10155000281D00F0F1F9012801D10420F0E72078DE
:10156000EEE700005C01002070B505462C460B48F4
:1015700000680068C06810B90949E16005E00748E3
:1015800000680068C168201D88470020A0800021F5
:10159000E1802181FFF750FD012070BD5C0100203A
:1015A000B0C8000870B505462C46201D00F0C4F9EF
:1015B000012801D1042070BD201D00F005FA01288A
:1015C0000DD1201DFFF746FE6178E268107A09F020
:1015D0002FFC012801D10920EDE70720EBE728784F
:1015E000E9E7000070B504462546687807490968B0
:1015F0000979884201DB002070BD281D00F0E4F964
:10160000012801D10620F7E72078F5E75C010020EA
:1016100001460220704770B50446254669780022CD
:101620001046FFF749FD012070BD70B50446254600
:10163000697800220120FFF73FFD012070BD70B5E1
:1016400004462546697800220220FFF735FD052073
:1016500070BD000070B504462546687806490968E3
:101660000979884201DB002070BD2A89697803204E
:10167000FFF722FD0120F7E75C01002010B50749C4
:10168000074800F0F9F8012806D10449044800F0A1
:101690000BF804480068804710BD0000208000203F
:1016A00070600240200000200246094B9A4201D29D
:1016B000084801E00648103801F000531BB1064B02
:1016C0000B40C36002E0044B0B4083607047000096
:1016D00010640240006002407D0F7D0F21B102685E
:1016E00042F00102026003E0026822F0010202609F
:1016F00070470000016821F00101016000210160D4
:1017000041608160C1600161212141614A49884293
:1017100004D13D21484A103A91608CE04649183185
:10172000884205D14FF47461434A103A916082E0D7
:1017300041493031884205D14FF474113E4A103A84
:10174000916078E03C494831884205D14FF074619E
:10175000394A103A91606EE037496031884204D1CD
:101760003649354A103AD16065E0334978318842CC
:1017700004D13349304A103AD1605CE02E499031AF
:10178000884204D12F492C4A103AD16053E02A49AB
:10179000A831884205D14FF03D51274A103AD16017
:1017A00049E02949884204D13D21274A083A11607D
:1017B00041E025491831884205D14FF47461224A2D
:1017C000083A116037E020493031884205D14FF4A2
:1017D00074111D4A083A11602DE01B4948318842B6
:1017E00005D14FF07461184A083A116023E0164998
:1017F0006031884204D11149134A121F11601AE066
:1018000011497831884204D10D490F4A121F1160E5
:1018100011E00D499031884204D10A490A4A121F49
:10182000116008E00849A831884204D14FF03D51C9
:10183000054A121F11607047106002403D000020F1
:10184000400F002000003D201064024021B10268DA
:1018500042F02002026003E0026822F020020260EF
:101860007047014600200A6802F001020AB1012017
:1018700000E000207047000070B502460020002400
:101880000025124EB24201D2114B01E00F4B103B2A
:10189000104E0E4036B11E2606EAD124166806EA1E
:1018A000040502E0566906F0800501F000560EB10D
:1018B0005C6800E01C68084E344004EA010616B17A
:1018C0000DB1012000E0002070BD00001064024056
:1018D000006002403C0F3C0F7D0F7D0F10B50022D1
:1018E0000268134B1A40CC680B6823434C692343AE
:1018F0008C692343CC6923430C6A23434C6A2343FA
:101900008C6A23434C6B23438C6B23431A43026042
:10191000426922F00702D1E90B3423431A434261A2
:101920000B6943604B6883608B68C36010BD000027
:101930003F801CF070470000014611B10948006863
:1019400008B9002070470888064A12681268527861
:1019500050438A689288904201DB0120F2E7002020
:10196000F0E700005C010020014611B10948006861
:1019700008B9002070474888064A126812685278F1
:1019800050438A68D288904201DB0120F2E70020B0
:10199000F0E700005C010020014611B10948006831
:1019A00008B9002070470888064A12681268527801
:1019B00050438A681288904201DB0120F2E7002040
:1019C000F0E700005C010020014611B10948006801
:1019D00008B9002070474888064A12681268527891
:1019E00050438A685288904201DB0120F2E70020D0
:1019F000F0E700005C01002070B5054600240DE012
:101A00000120A040284038B1064850F8240018B101
:101A1000044951F824008047601CC4B2062CEFD35F
:101A200070BD0000D4C7000851B18200A2F1C042CD
:101A3000126842F001038200A2F1C042136009E083
:101A40008200A2F1C0421268034B1A408300A3F146
:101A5000C0431A6070470000FEFF0F00D0E901127A
:101A60001143C268114302691143426911438269FB
:101A70001143C2691143026A1143426A1143826AE7
:101A80001143C26A1143026B114302689200A2F132
:101A9000C0421160816808290BD101688900A1F159
:101AA000C041096841F0400201688900A1F1C041CC
:101AB0000A60416B0968426B526841EA0211426B4D
:101AC000926841EA0221426B928941EA0241426BEB
:101AD000128A41EA0251426B127D41EA0261426B75
:101AE000926911430268521C9200A2F1C042116037
:101AF000C16AB1F5804F1BD1816B0968826B526856
:101B000041EA0211826B926841EA0221826B128AD9
:101B100041EA0251826B127D41EA0261826B926955
:101B2000114302689200A2F1C042C2F8041107E01A
:101B30006FF0704201688900A1F1C041C1F8042131
:101B4000704700002DE9FC4107460D4600260024A1
:101B500000200090019008205B4908601020486038
:101B6000402088600020C8604FF48060086108460B
:101B700004F08AFF1020FFF7A3FB044614B12046AF
:101B8000BDE8FC815148008800044F4908603720B7
:101B90004860402088600020C8604FF48060086181
:101BA000084604F071FF3720FFF78AFB04460CB1AA
:101BB0002046E5E74FF0FF304549086008204860BF
:101BC000302088600220C860002008610120486140
:101BD000084604F0F3FE00203B49086033204860CB
:101BE000402088600020C8604FF48060086108468B
:101BF00004F04AFF3320FFF763FB04460CB1204694
:101C0000BEE70CE04FF4001004F0F2FE38B13148AA
:101C100000684DF82600761C022E00D307E02D4800
:101C20004C38006840F22A6108400028EAD000BF22
:101C3000082004F0DDFE20B1082004F0AFFE0420EF
:101C40009EE7022004F0D4FE20B1022004F0A6FE9C
:101C5000022095E7202004F0CBFE20B1202004F0E4
:101C60009DFE06208CE74FF4007004F0C1FE28B101
:101C70004FF4007004F092FE072081E740F2FF501D
:101C800004F08CFE00980006009901F47F4140EAC0
:101C90000120009901F47F0140EA1120009940EAF7
:101CA0001160686001980006019901F47F4140EAE3
:101CB0000120019901F47F0140EA1120019940EAD5
:101CC0001160286020465BE790110020140000207E
:101CD000A4110020802C0140F0B50A460021002309
:101CE000002400BF3DE0012505FA01F3156805EA6F
:101CF00003049C4234D105684F000326BE40B5431F
:101D0000056015794E00B5400668354305601579C4
:101D1000012D02D01579022D16D185684F000326BA
:101D2000BE40B543856055794E00B5408668354361
:101D30008560456801268E40B543456045689679C3
:101D40008E40B6B235434560C5684F000326BE409D
:101D5000B543C560D5794E00B540C6683543C5600A
:101D6000491C1029BFD3F0BDF0B5002300244D0756
:101D7000ED0E02FA05F3CE1000F1200555F82650BD
:101D80004E07F70E0F26BE40B543CF1000F12006D8
:101D900046F82750CE1000F1200555F8265045EAA8
:101DA0000304CE1000F1200545F82640F0BD0246A0
:101DB000002013690B400BB1012000E000207047A8
:101DC000018370472DE9F05F82460F461446204696
:101DD000E21704EB5272D2102146E31704EB53735F
:101DE000DB10A4EBC3030BB1012300E000231A4472
:101DF000624302F0FF099AF800600AF1010082468E
:101E00000578812E05DB402D03DBFF2D01D0FF2E51
:101E10000DD14FF0000B06E0002007F8010B0BF18D
:101E2000010000F0FF0BCB45F6DBBDE8F09F7F2DF6
:101E300003DAA5F14000C5B202E0A5F14100C5B248
:101E4000A6F18100C6B2BE2010FB065000FB09F8C7
:101E50000C2C04D0102C0CD0182C1ED113E01048E0
:101E6000D0F8090000EB08014A46384606F0F6FFB4
:101E700013E00B48D0F8110000EB08014A46384641
:101E800006F0ECFF09E00648D0F8190000EB080165
:101E90004A46384606F0E2FF00BF00BF00BFC4E775
:101EA0005CBE012000BFFEE71CB50121022004F04A
:101EB0006BFC4FF44070009001208DF8040000206E
:101EC0008DF8060003208DF8050001208DF807002D
:101ED00069460548FFF700FF0120044908600449EE
:101EE000C1F8A4021CBD000000040240A0824042D0
:101EF0000080404270B504461548006820F4402038
:101F0000134908600846006840F4802008600020FB
:101F100010490860002517E0E0090E49091D086016
:101F20006006040E022008F061F901200A49C1F898
:101F3000A002022008F05AF9002006490860022099
:101F400008F054F9681CC5B2082DE5DB70BD00002F
:101F500000040240A08240420080404210B50F4879
:101F6000006820F440200D4908600846006840F4ED
:101F70008020086001200A4908600A49C1F8A002CF
:101F8000042008F033F9002005490860042008F017
:101F90002DF900200349C1F8A00210BD0004024041
:101FA000A48240420080404210B50F48006820F4EF
:101FB00040200D4908600846006840F48020086011
:101FC00000200A4908600A49C1F8A402042008F068
:101FD0000DF90120054908600549C1F8A402042053
:101FE00008F004F910BD000000040240A082404245
:101FF0000080404210B500241348006820F44020BF
:102000001149086008460068086001200F4908600F
:1020100008F0ECF801200E49C1F8A00208F0E6F83B
:1020200007E0601CC4B2FA2C03DDFFF7BDFF0120FE
:1020300010BD0648803800680028F2D10349091F06
:10204000086000BFF4E7000000040240A4824042A0
:10205000008040421CB504460020019000902248B8
:1020600000880004214908600D20486040208860F5
:102070000020C8604FF480600861084604F004FD49
:102080001B480068009002E0194800680090009822
:1020900000F045000028F7D0012004F0A9FC20B191
:1020A000012004F07BFC01201CBD042004F0A0FCF6
:1020B00020B1042004F072FC0320F5E70C4824381A
:1020C00000680D2801D01020EEE740F2FF5004F028
:1020D00065FC07482038006801900198C0F3432050
:1020E00020700020E0E70000140000209011002084
:1020F000342C01401CB50121112004F045FB1C20AB
:10210000009000208DF8040003208DF805000120C8
:102110008DF8070069460648FFF7DEFD01200090B4
:1021200002208DF8070069460248FFF7D5FD1CBD67
:10213000001002400000024010B500BF08B10328A3
:1021400000DD10BD024B441E03F8341000BFF8E759
:102150003C01002070B50A4D00240EE015F8340053
:1021600048B105EBC400406828B115F8340005EB10
:10217000C40251688847601CC4B2032CEEDB70BDFA
:102180003C01002070B504460026174805884088A9
:1021900045431548808846F60401884216D1124806
:1021A0008079012812D100200F4988712A204881A6
:1021B0002B2088810021084604F07CF801200A4980
:1021C00088712B2048812A20888103E0002108465D
:1021D00004F070F804F022FA002602E003480480BC
:1021E000761CAE42FAD370BD640100208000006C02
:1021F00010B50446002C66D16C498871F020088027
:102200004FF4A07048800846808849F241318842E6
:102210000BD06648808846F60401884205D06348A2
:10222000808845F2103188421AD12C205F490881FC
:102230002A2048812B2088810846808846F60401A0
:10224000884205D05948808845F21031884206D12D
:102250004FF4A070554908804FF4F0704880A1E019
:102260005248808845F21051884210D14FF43050C6
:102270004E4908814FF4285048814FF42C508881F2
:102280004FF4F07008804FF4487048808AE0474867
:10229000808841F6631188420DD12C204349088182
:1022A0002B2048812A2088814FF4F07008804FF459
:1022B0004870488076E022203C49088120204881EF
:1022C000212088816EE00120384988714FF4A07088
:1022D0000880F02048800846808849F241318842D1
:1022E00005D03248808845F21031884207D12C2031
:1022F0002E4908812A2048812B2088813FE02B48E5
:10230000808846F60401884207D12C20274908819D
:102310002B2048812A20888131E02448808845F29A
:102320001051884210D14FF43050204908814FF4A9
:10233000285048814FF42C5088814FF44870088011
:102340004FF4F07048801AE01848808841F6631115
:1023500088420DD12C20154908812A2048812B2044
:1023600088814FF4487008804FF4F070488006E090
:1023700022200E49088121204881202088810B4895
:10238000808846F60401884205D00848808845F2D6
:102390001031884206D14FF4F070044908804FF4A0
:1023A000A0704880002003F00FFE10BD64010020E3
:1023B00070B504460D4616465B48808849F24131A7
:1023C000884205D05848808845F21031884214D19F
:1023D0005549488904F016F9201204F007F9E0B2D3
:1023E00004F004F95049888904F00CF9281204F02B
:1023F000FDF8E8B204F0FAF88CE04B48808845F22A
:102400001051884220D14849488904F0FBF8201235
:1024100004F0ECF844494989491C88B204F0F2F808
:10242000E0B204F0E3F84049888904F0EBF82812A0
:1024300004F0DCF83C498989491C88B204F0E2F8D0
:10244000E8B204F0D3F865E03748808841F66311BC
:10245000884228D13448807920B933480088401E0A
:10246000001B84B23049488904F0CCF8201204F0F3
:10247000BDF8E0B204F0BAF8201204F0B7F8E0B208
:1024800004F0B4F82849888904F0BCF8281204F054
:10249000ADF8E8B204F0AAF8281204F0A7F8E8B200
:1024A00004F0A4F836E02048808846F6040188420B
:1024B0001DD11D488079012804D11B480088401E89
:1024C000001B84B21849488904F09CF8201204F0DB
:1024D0008DF8E0B204F08AF81349888904F092F884
:1024E000281204F083F8E8B204F080F812E00E48F5
:1024F0008079012804D10C480088401E001B84B25A
:1025000009494889214604F093F8074988892946F2
:1025100004F08EF804480089044908804FF0D84040
:10252000A0F8806070BD0000640100207E00006C97
:102530002DE9FC4F05460E4617469846DDF82C90CF
:10254000002001902748808846F60401884229D15E
:1025500024488079012825D1AB463546214800889A
:10256000C01B401E86B247461E480088A0EB0B00E9
:10257000401E1FFA80F800201A4988712A204881DD
:102580002B20888143463A4631462846CDF80090B4
:10259000FFF7CEFF0120134988712B2048812A20A4
:1025A00088811DE0781B401C80B20190344615E004
:1025B0002146284603F07EFE04F030F84FF0000A72
:1025C00007E04FF0D840A0F880900AF101001FFA10
:1025D00080FA01988245F4DB601C84B24445E7DD53
:1025E000BDE8FC8F6401002000B5A1B00020209060
:1025F00001217A2004F0C8F80121084604F0D4F83B
:102600004FF400401E9001208DF87C0000208DF8D2
:102610007E0002208DF87D0001208DF87F001EA92C
:10262000FE48FFF759FB4CF233701E9002208DF8E4
:102630007C0000208DF87E0003208DF87D000120B5
:102640008DF87F001EA9F648FFF746FB4FF6807015
:102650001E9002208DF87C0000208DF87E00032063
:102660008DF87D0001208DF87F001EA9ED48FFF751
:1026700033FB4FF480501E9002208DF87C00002028
:102680008DF87E0003208DF87D0001208DF87F00FD
:102690001EA9E548FFF720FB4FF480501E90022052
:1026A0008DF87C0000208DF87E0003208DF87D00E1
:1026B00001208DF87F001EA9DC48FFF70DFB0C22DE
:1026C0000021D748FFF750FB0C220121D448FFF727
:1026D0004BFB0C220421D248FFF746FB0C220521BC
:1026E000CF48FFF741FB0C220821CD48FFF73CFB08
:1026F0000C220921CA48FFF737FB0C220A21C848DF
:10270000FFF732FB0C220E21C548FFF72DFB0C22F0
:102710000F21C348FFF728FB0C220721C148FFF710
:1027200023FB0C220821BF48FFF71EFB0C220921C6
:10273000BC48FFF719FB0C220A21BA48FFF714FB2B
:102740000C220B21B748FFF70FFB0C221146B548AE
:10275000FFF70AFB0C220D21B248FFF705FB0C2204
:102760000E21B048FFF700FB0C220F21AD48FFF708
:10277000FBFA0C221146AC48FFF7F6FA0C22114680
:10278000AA48FFF7F1FA0F200890002009903C209A
:102790000A9000200B900C900D900E900920019053
:1027A00000200290082003900020049005900690DD
:1027B000079006200F90002010901190102012908A
:1027C0000020139015901490169017904FF480509D
:1027D0001890002019904FF480401A9000201B9010
:1027E00008A81C9001A81D900FA8FFF737F9012138
:1027F0000620FFF719F9322007F0DCFC0121002048
:1028000003F016FF322007F0D5FC002003F0A0FBF8
:102810008749888008468088FF280ADB0846808828
:102820004FF6FF71884204D081488088B0F5134F7D
:102830007ED1D32003F0E6FE03F080FB7C49888044
:1028400003F07CFB7A49888003F078FB7849888024
:10285000084680884FF6FF7101EA0020744988809D
:1028600003F06CFB724989880843714988800846E7
:10287000808849F2413188425AD0BF2003F0C2FE1D
:1028800003F05CFB6A49888003F058FB6849888044
:1028900003F054FB6649888003F050FB644988804C
:1028A000084680884FF6FF7101EA00206049888061
:1028B00003F044FB5E49898808435D4988800846E7
:1028C000808846F6040188427AD0D42003F09AFE2C
:1028D00003F034FB5649888003F030FB544988806C
:1028E00003F02CFB52498880084680884FF6FF7120
:1028F00001EA00204E49888003F020FB4C4989887A
:1029000008434B4988800846808845F21031884248
:1029100056D04FF45A4003F075FE03F00FFB4449C4
:1029200088804FF45B4003F06DFE03F007FB00E08E
:1029300046E03F498880084680884FF6FF7101EAEB
:1029400000203B4988804FF45C4003F05BFE03F0BD
:10295000F5FA3749898808433549888008468088D0
:10296000B0F5004F02D145F2105088803048808881
:1029700045F21051884223D0A12003F043FE03F01A
:10298000DDFA2B49888003F0D9FA29498880084666
:1029900080884FF6FF7101EA00202549888003F006
:1029A000CDFA2349898808432149888008468088D0
:1029B00045F26171884203D141F663101C49888059
:1029C0001B48808849F24131884211D018488088DC
:1029D00045F2103188420BD01548808845F21051DD
:1029E000884205D01248808841F6631188422DD173
:1029F0001048006820F00F004FF02041C1F81C0182
:102A00000846D0F81C0120F47060C1F81C0108468B
:102A1000D0F81C0140F003000EE00000000402406A
:102A2000000C024000100240001402400018024056
:102A3000640100201C0100A0C1F81C010846D0F868
:102A40001C0140F40070C1F81C0128E0FB4880889C
:102A500046F60401884205D0F84880884CF20551BA
:102A600088421CD1F648006820F00F004FF020414A
:102A7000C1F81C010846D0F81C0120F47060C1F8B0
:102A80001C010846D0F81C0140F00A00C1F81C01E6
:102A90000846D0F81C0140F44060C1F81C01E7482A
:102AA000808849F2413188427ED1CF2003F0AAFDCF
:102AB000002003F09BFDC12003F098FD302003F0BF
:102AC00095FDED2003F09EFD642003F08FFD0320B3
:102AD00003F08CFD122003F089FD812003F086FDB8
:102AE000E82003F08FFD852003F080FD102003F027
:102AF0007DFD7A2003F07AFDCB2003F083FD3920A1
:102B000003F074FD2C2003F071FD002003F06EFD36
:102B1000342003F06BFD022003F068FDF72003F082
:102B200071FD202003F062FDEA2003F06BFD002020
:102B300003F05CFD002003F059FDC02003F062FDAE
:102B40001B2003F053FDC12003F05CFD012003F0C6
:102B50004DFDC52003F056FD302003F047FD302029
:102B600003F044FDC72003F04DFDB72003F03EFD08
:102B7000362003F047FD482003F038FD3A2003F0EB
:102B800041FD552003F032FDB12003F03BFD002054
:102B900003F02CFD1A2003F029FDB62003F032FDCE
:102BA0000A2003F023FD00E097E0A22003F01EFDC1
:102BB000F22003F027FD002003F018FD262003F08B
:102BC00021FD012003F012FDE02003F01BFD0F208A
:102BD00003F00CFD2A2003F009FD282003F006FD78
:102BE000082003F003FD0E2003F000FD082003F091
:102BF000FDFC542003F0FAFCA92003F0F7FC43206D
:102C000003F0F4FC0A2003F0F1FC0F2003F0EEFCCB
:102C1000002003F0EBFC002003F0E8FC002003F0B0
:102C2000E5FC002003F0E2FCE12003F0EBFC0020D7
:102C300003F0DCFC152003F0D9FC172003F0D6FCD0
:102C4000072003F0D3FC112003F0D0FC062003F092
:102C5000CDFC2B2003F0CAFC562003F0C7FC3C201F
:102C600003F0C4FC052003F0C1FC102003F0BEFCFF
:102C70000F2003F0BBFC3F2003F0B8FC3F2003F023
:102C8000B5FC0F2003F0B2FC2B2003F0BBFC0020AE
:102C900003F0ACFC002003F0A9FC012003F0A6FC2B
:102CA0003F2003F0A3FC2A2003F0ACFC002003F03B
:102CB0009DFC002003F09AFC002003F097FCEF201D
:102CC00003F094FC112003F09DFC782007F072FAC9
:102CD000292003F097FC03F021B95848808846F674
:102CE000040188427ED1112003F08CFC142007F0EF
:102CF00061FAD02003F086FC072003F077FC422025
:102D000003F074FC1D2003F071FCD12003F07AFC69
:102D1000002003F06BFC1A2003F068FC092003F08C
:102D200065FCD22003F06EFC012003F05FFC222042
:102D300003F05CFCC02003F065FC102003F056FC9F
:102D40003B2003F053FC002003F050FC022003F072
:102D50004DFC112003F04AFCC52003F053FC032076
:102D600003F044FCC82003F04DFC002003F03EFCBF
:102D7000252003F03BFC212003F038FC052003F064
:102D800035FC002003F032FC0A2003F02FFC652004
:102D900003F02CFC252003F029FC772003F026FC0F
:102DA000502003F023FC0F2003F020FC002003F050
:102DB0001DFCF82003F026FC012003F017FCFE2088
:102DC00003F020FC002003F011FC022003F00EFCB5
:102DD000202003F017FC362003F014FC082003F039
:102DE00005FC00E02EE03A2003F00CFC552003F037
:102DF000FDFB2B2003F006FC002003F0F7FB002076
:102E000003F0F4FB012003F0F1FB3F2003F0EEFBA5
:102E10002A2003F0F7FB002003F0E8FB002003F07A
:102E2000E5FB012003F0E2FBDF2003F0DFFB78206D
:102E300007F0C0F9292003F0E5FB4CE7640100200E
:102E40001C0100A0FE48808845F21031884240F005
:102E50007C87ED2003F0D6FB012003F0C7FBFE20AA
:102E600003F0C4FBEE2003F0CDFBDE2003F0BEFB3D
:102E7000212003F0BBFBF12003F0C4FB012003F091
:102E8000B5FBDF2003F0BEFB102003F0AFFBC42036
:102E900003F0B8FB8F2003F0A9FBC62003F0B2FBC0
:102EA000002003F0A3FBE22003F0A0FBE22003F0EC
:102EB0009DFBE22003F09AFBBF2003F0A3FBAA20B6
:102EC00003F094FBB02003F09DFB0D2003F08EFB7C
:102ED000002003F08BFB0D2003F088FB002003F0A3
:102EE00085FB112003F082FB002003F07FFB1920FB
:102EF00003F07CFB002003F079FB212003F076FB3C
:102F0000002003F073FB2D2003F070FB002003F082
:102F10006DFB3D2003F06AFB002003F067FB5D20A2
:102F200003F064FB002003F061FB5D2003F05EFB17
:102F3000002003F05BFBB12003F064FB802003F072
:102F400055FB002003F052FB8B2003F04FFB0020C9
:102F500003F04CFB962003F049FB002003F046FBF6
:102F6000B22003F04FFB002003F040FB002003F0F1
:102F70003DFB022003F03AFB002003F037FB032067
:102F800003F034FB002003F031FBB32003F03AFBE5
:102F9000002003F02BFB002003F028FB002003F0AF
:102FA00025FB002003F022FB002003F01FFB002084
:102FB00003F01CFB002003F019FB002003F016FBBC
:102FC000002003F013FB002003F010FB002003F0AF
:102FD0000DFB002003F00AFB002003F007FB00209C
:102FE00003F004FB002003F001FB002003F0FEFAD5
:102FF000002003F0FBFA002003F0F8FA002003F0B1
:10300000F5FA002003F0F2FA002003F0EFFA0020B6
:1030100003F0ECFA002003F0E9FA002003F0E6FAEE
:10302000B42003F0EFFA8B2003F0E0FA002003F065
:10303000DDFA962003F0DAFA002003F0D7FAA12097
:1030400003F0D4FA002003F0D1FAB52003F0DAFA45
:10305000022003F0CBFA002003F0C8FA032003F0AB
:10306000C5FA002003F0C2FA042003F0BFFA0020E2
:1030700003F0BCFAB62003F0C5FA002003F0B6FA5C
:10308000002003F0B3FAB72003F0BCFA002003F0ED
:10309000ADFA002003F0AAFA3F2003F0A7FA0020BF
:1030A00003F0A4FA5E2003F0A1FA002003F09EFAD8
:1030B000642003F09BFA002003F098FA8C2003F0C0
:1030C00095FA002003F092FAAC2003F08FFA00206A
:1030D00003F08CFADC2003F089FA002003F086FA72
:1030E000702003F083FA002003F080FA902003F0B0
:1030F0007DFA002003F07AFAEB2003F077FA002043
:1031000003F074FADC2003F071FA002003F06EFA89
:10311000B82003F077FA002003F068FA002003F0EB
:1031200065FA002003F062FA002003F05FFA002045
:1031300003F05CFA002003F059FA002003F056FA7D
:10314000002003F053FABA2003F05CFA242003F0C5
:103150004DFA002003F04AFA002003F047FA00205D
:1031600003F044FAC12003F04DFA202003F03EFAA8
:10317000002003F03BFA542003F038FA002003F05B
:1031800035FAFF2003F032FA002003F02FFAC220B4
:1031900003F038FA0A2003F029FA002003F026FA97
:1031A000042003F023FA002003F020FAC32003F0E8
:1031B00029FA3C2003F01AFA002003F017FA3A200B
:1031C00003F014FA002003F011FA392003F00EFA8C
:1031D000002003F00BFA372003F008FA002003F078
:1031E00005FA3C2003F002FA002003F0FFF9362034
:1031F00003F0FCF9002003F0F9F9322003F0F6F9AE
:10320000002003F0F3F92F2003F0F0F9002003F081
:10321000EDF92C2003F0EAF9002003F0E7F929206A
:1032200003F0E4F9002003F0E1F9262003F0DEF9D1
:10323000002003F0DBF9242003F0D8F9002001E09E
:103240006401002003F0D2F9242003F0CFF900201C
:1032500003F0CCF9232003F0C9F9002003F0C6F9EC
:103260003C2003F0C3F9002003F0C0F9362003F03E
:10327000BDF9002003F0BAF9322003F0B7F90020BD
:1032800003F0B4F92F2003F0B1F9002003F0AEF9F8
:103290002C2003F0ABF9002003F0A8F9292003F05B
:1032A000A5F9002003F0A2F9262003F09FF90020E1
:1032B00003F09CF9242003F099F9002003F096F91B
:1032C000242003F093F9002003F090F9232003F069
:1032D0008DF9002003F08AF9C42003F093F96220ED
:1032E00003F084F9002003F081F9052003F07EF952
:1032F000002003F07BF9842003F078F9002003F02C
:1033000075F9F02003F072F9002003F06FF918202E
:1033100003F06CF9002003F069F9A42003F066F9CA
:10332000002003F063F9182003F060F9002003F097
:103330005DF9502003F05AF9002003F057F90C20F2
:1033400003F054F9002003F051F9172003F04EF96F
:10335000002003F04BF9952003F048F9002003F01A
:1033600045F9F32003F042F9002003F03FF9E6208D
:1033700003F03CF9002003F039F9C52003F042F9CD
:10338000322003F033F9002003F030F9442003F039
:103390002DF9002003F02AF9652003F027F9002019
:1033A00003F024F9762003F021F9002003F01EF940
:1033B000882003F01BF9002003F018F9C62003F061
:1033C00021F9202003F012F9002003F00FF9172053
:1033D00003F00CF9002003F009F9012003F006F9CD
:1033E000002003F003F9C72003F00CF9002003F0DC
:1033F000FDF8002003F0FAF8002003F0F7F80020B1
:1034000003F0F4F8C82003F0FDF8002003F0EEF814
:10341000002003F0EBF8002003F0E8F8002003F0B0
:10342000E5F8C92003F0EEF8002003F0DFF80020F3
:1034300003F0DCF8002003F0D9F8002003F0D6F800
:10344000002003F0D3F8002003F0D0F8002003F0B0
:10345000CDF8002003F0CAF8002003F0C7F80020E0
:1034600003F0C4F8002003F0C1F8002003F0BEF818
:10347000002003F0BBF8002003F0B8F8002003F0B0
:10348000B5F8002003F0B2F8E02003F0BBF81620F6
:1034900003F0ACF8002003F0A9F81C2003F0A6F814
:1034A000002003F0A3F8212003F0A0F8002003F08F
:1034B0009DF8362003F09AF8002003F097F8462094
:1034C00003F094F8002003F091F8522003F08EF8F6
:1034D000002003F08BF8642003F088F8002003F04C
:1034E00085F87A2003F082F8002003F07FF88B2023
:1034F00003F07CF8002003F079F8992003F076F8C7
:10350000002003F073F8A82003F070F8002003F007
:103510006DF8B92003F06AF8002003F067F8C420C2
:1035200003F064F8002003F061F8CA2003F05EF8AD
:10353000002003F05BF8D22003F058F8002003F0DD
:1035400055F8D92003F052F8002003F04FF8E0209E
:1035500003F04CF8002003F049F8F32003F046F89C
:10356000002003F043F8E12003F04CF8162003F0AC
:103570003DF8002003F03AF81C2003F037F8002053
:1035800003F034F8222003F031F8002003F02EF885
:10359000362003F02BF8002003F028F8452003F034
:1035A00025F8002003F022F8522003F01FF8002035
:1035B00003F01CF8642003F019F8002003F016F85B
:1035C0007A2003F013F8002003F010F88B2003F0AA
:1035D0000DF8002003F00AF8992003F007F8002006
:1035E00003F004F8A82003F001F8002002F0FEFF29
:1035F000B92002F0FBFF002002F0F8FFC42002F027
:10360000F5FF002002F0F2FFCA2002F0EFFF0020D9
:1036100002F0ECFFD22002F0E9FF002002F0E6FF0A
:10362000D82002F0E3FF002002F0E0FFE02002F0EB
:10363000DDFF002002F0DAFFF32002F0D7FF0020C8
:1036400002F0D4FFE22002F0DDFF052002F0CEFF01
:10365000002002F0CBFF0B2002F0C8FF002002F098
:10366000C5FF1B2002F0C2FF002002F0BFFF342084
:1036700002F0BCFF002002F0B9FF442002F0B6FFC8
:10368000002002F0B3FF4F2002F0B0FF002002F054
:10369000ADFF612002F0AAFF002002F0A7FF792011
:1036A00002F0A4FF002002F0A1FF882002F09EFF9C
:1036B000002002F09BFF972002F098FF002002F00C
:1036C00095FFA62002F092FF002002F08FFFB720A6
:1036D00002F08CFF002002F089FFC22002F086FF7A
:1036E000002002F083FFC72002F080FF002002F0DC
:1036F0007DFFD12002F07AFF002002F077FFD62074
:1037000002F074FF002002F071FFDD2002F06EFF76
:10371000002002F06BFFF32002F068FF002002F0AF
:1037200065FFE32002F06EFF052002F05FFF00203E
:1037300002F05CFF0A2002F059FF002002F056FF61
:103740001C2002F053FF002002F050FF332002F053
:103750004DFF002002F04AFF442002F047FF002006
:1037600002F044FF502002F041FF002002F03EFF33
:10377000622002F03BFF002002F038FF782002F0C8
:1037800035FF002002F032FF882002F02FFF0020DA
:1037900002F02CFF972002F029FF002002F026FF04
:1037A000A62002F023FF002002F020FFB72002F045
:1037B0001DFF002002F01AFFC22002F017FF0020B8
:1037C00002F014FFC72002F011FF002002F00EFFEC
:1037D000D12002F00BFF002002F008FFD52002F0FC
:1037E00005FF002002F002FFDD2002F0FFFE0020B6
:1037F00002F0FCFEF32002F0F9FE002002F0F6FEDB
:10380000E42002F0FFFE012002F0F0FE002002F0B2
:10381000EDFE012002F0EAFE002002F0E7FE0220A9
:1038200002F0E4FE002002F0E1FE2A2002F0DEFEBB
:10383000002002F0DBFE3C2002F0D8FE002002F067
:10384000D5FE4B2002F0D2FE002002F0CFFE5D201C
:1038500002F0CCFE002002F0C9FE742002F0C6FE89
:10386000002002F0C3FE842002F0C0FE002002F01F
:10387000BDFE932002F0BAFE002002F0B7FEA220A7
:1038800002F0B4FE002002F0B1FEB32002F0AEFE62
:10389000002002F0ABFEBE2002F0A8FE002002F0E5
:1038A000A5FEC42002F0A2FE002002F09FFECD2063
:1038B00002F09CFE002002F099FED32002F096FE5A
:1038C000002002F093FEDD2002F090FE002002F0C6
:1038D0008DFEF32002F08AFE002002F087FEE52034
:1038E00002F090FE002002F081FE002002F07EFE39
:1038F000002002F07BFE002002F078FE022002F0A1
:1039000075FE002002F072FE292002F06FFE0020FA
:1039100002F06CFE3C2002F069FE002002F066FE20
:103920004B2002F063FE002002F060FE5D2002F0FA
:103930005DFE002002F05AFE742002F057FE0020C7
:1039400002F054FE842002F051FE002002F04EFEF0
:10395000932002F04BFE002002F048FEA22002F06D
:1039600045FE002002F042FEB32002F03FFE0020A0
:1039700002F03CFEBE2002F039FE002002F036FECE
:10398000C42002F033FE002002F030FECD2002F011
:103990002DFE002002F02AFED32002F027FE002098
:1039A00002F024FEDC2002F021FE002002F01EFEC8
:1039B000F32002F01BFE002002F018FEE62002F0C9
:1039C00021FE112002F012FE002002F00FFE342032
:1039D00002F00CFE002002F009FE562002F006FE66
:1039E000002002F003FE762002F000FE002002F02C
:1039F000FDFD772002F0FAFD002002F0F7FD6620C1
:103A000002F0F4FD002002F0F1FD882002F0EEFD4E
:103A1000002002F0EBFD992002F0E8FD002002F00A
:103A2000E5FDBB2002F0E2FD002002F0DFFD992061
:103A300002F0DCFD002002F0D9FD662002F0D6FD88
:103A4000002002F0D3FD552002F0D0FD002002F04E
:103A5000CDFD552002F0CAFD002002F0C7FD452033
:103A600002F0C4FD002002F0C1FD432002F0BEFDC3
:103A7000002002F0BBFD442002F0B8FD002002F05F
:103A8000B5FDE72002F0BEFD322002F0AFFD0020C0
:103A900002F0ACFD552002F0A9FD002002F0A6FDC9
:103AA000762002F0A3FD002002F0A0FD662002F0C7
:103AB0009DFD002002F09AFD672002F097FD002096
:103AC00002F094FD672002F091FD002002F08EFDCF
:103AD000872002F08BFD002002F088FD992002F083
:103AE00085FD002002F082FDBB2002F07FFD00205A
:103AF00002F07CFD992002F079FD002002F076FDB5
:103B0000772002F073FD002002F070FD442002F0E7
:103B10006DFD002002F06AFD562002F067FD0020D6
:103B200002F064FD232002F061FD002002F05EFD42
:103B3000332002F05BFD002002F058FD452002F02A
:103B400055FD002002F052FDE82002F05BFD002050
:103B500002F04CFD002002F049FD992002F046FDE4
:103B6000002002F043FD872002F040FD002002F01B
:103B70003DFD882002F03AFD002002F037FD77205D
:103B800002F034FD002002F031FD662002F02EFD2F
:103B9000002002F02BFD882002F028FD002002F01A
:103BA00025FDAA2002F022FD002002F01FFDBB200F
:103BB00002F01CFD002002F019FD992002F016FD14
:103BC000002002F013FD662002F010FD002002F03C
:103BD0000DFD552002F00AFD002002F007FD5520E2
:103BE00002F004FD002002F001FD442002F0FEFC82
:103BF000002002F0FBFC442002F0F8FC002002F060
:103C0000F5FC552002F0F2FC002002F0EFFCE92068
:103C100002F0F8FCAA2002F0E9FC002002F0E6FC29
:103C2000002002F0E3FC002002F0E0FC002002F0A3
:103C3000E9FCAA2002F0DAFCCF2002F0E3FC00202D
:103C400002F0D4FC002002F0D1FC002002F0CEFCF7
:103C5000002002F0CBFC002002F0C8FC002002F0A3
:103C6000C5FC002002F0C2FC002002F0BFFC0020D6
:103C700002F0BCFC002002F0B9FC002002F0B6FC0F
:103C8000002002F0B3FC002002F0B0FC002002F0A3
:103C9000ADFC002002F0AAFC002002F0A7FC0020EE
:103CA00002F0A4FCF02002F0ADFC002002F09EFC2B
:103CB000502002F09BFC002002F098FC002002F053
:103CC00095FC002002F092FCF32002F09BFC002007
:103CD00002F08CFCF92002F095FC062002F086FC34
:103CE000102002F083FC292002F080FC002002F06A
:103CF0007DFC3A2002F086FC552002F077FC112072
:103D000002F080FC642006F055FA292002F07AFCCB
:103D1000352002F077FC002002F068FC512002F010
:103D200071FCFF2002F062FC532002F06BFC2C209F
:103D300002F05CFC552002F065FC822002F056FC8B
:103D40002C2002F05FFC02F0E9B8FE48808845F2C2
:103D5000105188427ED155214FF4704002F068FC2A
:103D6000AA214FF2010002F063FC52214FF202003F
:103D700002F05EFC08214FF2030002F059FC012121
:103D80004FF2040002F054FC0D214FF4304002F0D9
:103D90004FFC0D214BF2010002F04AFC0D214BF2C9
:103DA000020002F045FC34214FF4364002F040FCA2
:103DB00034214BF2016002F03BFC34214BF20260F3
:103DC00002F036FC0D214FF4314002F031FC0D21A0
:103DD0004BF2011002F02CFC0D214BF2021002F00C
:103DE00027FC34214FF4374002F022FC34214BF2FF
:103DF000017002F01DFC34214BF2027002F018FC3D
:103E000000214FF4324002F013FC00214BF201205C
:103E100002F00EFC00214BF2022002F009FC2421EA
:103E20004FF4384002F004FC24214BF6010002F06C
:103E3000FFFB24214BF6020002F0FAFB01214FF4B4
:103E40003F4002F0F5FB0F214FF4334002F0F0FB4E
:103E50000F2100E0FEE34BF2013002F0E9FB0F21FD
:103E60004BF2023002F0E4FB34214FF4394002F00F
:103E7000DFFB34214BF6011002F0DAFB34214BF664
:103E8000021002F0D5FB08214FF4354002F0D0FBC0
:103E900008214BF2015002F0CBFB08214BF20250FB
:103EA00002F0C6FB03214FF4424002F0C1FB242183
:103EB0004FF43A4002F0BCFB24214BF6012002F003
:103EC000B7FB24214BF6022002F0B2FB00214FF495
:103ED0003C4002F0ADFB78214BF6014002F0A8FB1C
:103EE00000214BF6024002F0A3FB00214FF43D40BD
:103EF00002F09EFB78214BF6015002F099FB002165
:103F00004BF6025002F094FB00214FF43E4002F0C9
:103F10008FFB64214BF6016002F08AFB00214FF415
:103F2000514002F085FB33214DF2011002F080FB7D
:103F300000214DF2021002F07BFB34214DF2031000
:103F400002F076FB00214DF2041002F071FB3A21E1
:103F50004DF2051002F06CFB00214DF2061002F04C
:103F600067FB4A214DF2071002F062FB00214DF27F
:103F7000081002F05DFB5C214DF2091002F058FBC5
:103F800000214DF20A1002F053FB81214DF20B107B
:103F900002F04EFB00214DF20C1002F049FBA6216D
:103FA0004DF20D1002F044FB00214DF20E1002F014
:103FB0003FFBE5214DF20F1002F03AFB01214DF2DB
:103FC000101002F035FB13214DF2111002F030FBFE
:103FD00001214DF2121002F02BFB54214DF213106F
:103FE00002F026FB01214DF2141002F021FB822188
:103FF0004DF2151002F01CFB01214DF2161002F0DB
:1040000017FBCA214DF2171002F012FB02214DF2EC
:10401000181002F00DFB00214DF2191002F008FB00
:1040200002214DF21A1002F003FB01214DF21B1088
:1040300002F0FEFA02214DF21C1002F0F9FA3421CE
:104040004DF21D1002F0F4FA02214DF21E1002F0A2
:10405000EFFA67214DF21F1002F0EAFA02214DF249
:10406000201002F0E5FA84214DF2211002F0E0FA6E
:1040700002214DF2221002F0DBFAA4214DF22310AE
:1040800002F0D6FA02214DF2241002F0D1FAB72143
:104090004DF2251002F0CCFA02214DF2261002F06A
:1040A000C7FACF214DF2271002F0C2FA02214DF2D9
:1040B000281002F0BDFADE214DF2291002F0B8FA04
:1040C00002214DF22A1002F0B3FAF2214DF22B1028
:1040D00002F0AEFA02214DF22C1002F0A9FAFE21F4
:1040E0004DF22D1002F0A4FA03214DF22E1002F031
:1040F0009FFA10214DF22F1002F09AFA03214DF28F
:10410000301002F095FA33214DF2311002F090FA9E
:1041100003214DF2321002F08BFA6D214DF2331073
:1041200002F086FA00214FF4524002F081FA332166
:104130004DF2012002F07CFA00214DF2022002F043
:1041400077FA01E06401002034214DF2032002F0EF
:104150006FFA00214DF2042002F06AFA3A214DF282
:10416000052002F065FA00214DF2062002F060FA07
:104170004A214DF2072002F05BFA00214DF208209F
:1041800002F056FA5C214DF2092002F051FA0021AA
:104190004DF20A2002F04CFA81214DF20B2002F080
:1041A00047FA00214DF20C2002F042FAA6214DF20E
:1041B0000D2002F03DFA00214DF20E2002F038FAF7
:1041C000E5214DF20F2002F033FA01214DF21020CB
:1041D00002F02EFA13214DF2112002F029FA0121EA
:1041E0004DF2122002F024FA54214DF2132002F075
:1041F0001FFA01214DF2142002F01AFA82214DF229
:10420000152002F015FA01214DF2162002F010FAE5
:10421000CA214DF2172002F00BFA02214DF21820AC
:1042200002F006FA00214DF2192002F001FA0221F3
:104230004DF21A2002F0FCF901214DF21B2002F090
:10424000F7F902214DF21C2002F0F2F934214DF26F
:104250001D2002F0EDF902214DF21E2002F0E8F9D6
:1042600067214DF21F2002F0E3F902214DF22020D8
:1042700002F0DEF984214DF2212002F0D9F9022169
:104280004DF2222002F0D4F9A4214DF2232002F0B5
:10429000CFF902214DF2242002F0CAF9B7214DF2E4
:1042A000252002F0C5F902214DF2262002F0C0F9C6
:1042B000CF214DF2272002F0BBF902214DF2282038
:1042C00002F0B6F9DE214DF2292002F0B1F9022107
:1042D0004DF22A2002F0ACF9F2214DF22B2002F02F
:1042E000A7F902214DF22C2002F0A2F9FE214DF295
:1042F0002D2002F09DF903214DF22E2002F098F9B5
:1043000010214DF22F2002F093F903214DF23020BD
:1043100002F08EF933214DF2312002F089F90321A8
:104320004DF2322002F084F96D214DF2332002F07B
:104330007FF900214FF4534002F07AF933214DF216
:10434000013002F075F900214DF2023002F070F9EF
:1043500034214DF2033002F06BF900214DF20430AC
:1043600002F066F93A214DF2053002F061F90021C0
:104370004DF2063002F05CF94A214DF2073002F0AE
:1043800057F900214DF2083002F052F95C214DF24C
:10439000093002F04DF900214DF20A3002F048F9DF
:1043A00081214DF20B3002F043F900214DF20C3027
:1043B00002F03EF9A6214DF20D3002F039F900214C
:1043C0004DF20E3002F034F9E5214DF20F3002F0DB
:1043D0002FF901214DF2103002F02AF913214DF28C
:1043E000113002F025F901214DF2123002F020F9CE
:1043F00054214DF2133002F01BF901214DF214301B
:1044000002F016F982214DF2153002F011F9012166
:104410004DF2163002F00CF9CA214DF2173002F0BD
:1044200007F902214DF2183002F002F900214DF295
:10443000193002F0FDF802214DF21A3002F0F8F8BE
:1044400001214DF21B3002F0F3F802214DF21C3035
:1044500002F0EEF834214DF21D3002F0E9F80221AD
:104460004DF21E3002F0E4F867214DF21F3002F0E9
:10447000DFF802214DF2203002F0DAF884214DF20B
:10448000213002F0D5F802214DF2223002F0D0F8AE
:10449000A4214DF2233002F0CBF802214DF224305A
:1044A00002F0C6F8B7214DF2253002F0C1F8022122
:1044B0004DF2263002F0BCF8CF214DF2273002F049
:1044C000B7F802214DF2283002F0B2F8DE214DF2A9
:1044D000293002F0ADF802214DF22A3002F0A8F89E
:1044E000F2214DF22B3002F0A3F802214DF22C30D4
:1044F00002F09EF8FE214DF22D3002F099F80321D2
:104500004DF22E3002F094F810214DF22F3002F0CF
:104510008FF803214DF2303002F08AF833214DF24A
:10452000313002F085F803214DF2323002F080F88C
:104530006D214DF2333002F07BF800214FF45440EE
:1045400002F076F833214DF2014002F071F80021BB
:104550004DF2024002F06CF834214DF2034002F0BB
:1045600067F800214DF2044002F062F83A214DF262
:10457000054002F05DF800214DF2064002F058F8C7
:104580004A214DF2074002F053F800214DF2084055
:1045900002F04EF85C214DF2094002F049F800218A
:1045A0004DF20A4002F044F881214DF20B4002F036
:1045B0003FF800214DF20C4002F03AF8A6214DF2EE
:1045C0000D4002F035F800214DF20E4002F030F8B7
:1045D000E5214DF20F4002F02BF801214DF2104081
:1045E00002F026F813214DF2114002F021F80121CA
:1045F0004DF2124002F01CF854214DF2134002F02B
:1046000017F801214DF2144002F012F882214DF208
:10461000154002F00DF801214DF2164002F008F8A5
:10462000CA214DF2174002F003F802214DF2184062
:1046300001F0FEFF00214DF2194001F0F9FF0221C7
:104640004DF21A4001F0F4FF01214DF21B4001F040
:10465000EFFF00E004E302214DF21C4001F0E8FF0F
:1046600034214DF21D4001F0E3FF02214DF21E40C6
:1046700001F0DEFF67214DF21F4001F0D9FF02215A
:104680004DF2204001F0D4FF84214DF2214001F091
:10469000CFFF02214DF2224001F0CAFFA4214DF2CA
:1046A000234001F0C5FF02214DF2244001F0C0FF7C
:1046B000B7214DF2254001F0BBFF02214DF226400B
:1046C00001F0B6FFCF214DF2274001F0B1FF0221EA
:1046D0004DF2284001F0ACFFDE214DF2294001F0FF
:1046E000A7FF02214DF22A4001F0A2FFF2214DF274
:1046F0002B4001F09DFF02214DF22C4001F098FF6C
:10470000FE214DF22D4001F093FF03214DF22E408A
:1047100001F08EFF10214DF22F4001F089FF03219F
:104720004DF2304001F084FF33214DF2314001F071
:104730007FFF03214DF2324001F07AFF6D214DF2EF
:10474000334001F075FF00214FF4554001F070FF38
:1047500033214DF2015001F06BFF00214DF2025068
:1047600001F066FF34214DF2035001F061FF00219A
:104770004DF2045001F05CFF3A214DF2055001F07A
:1047800057FF00214DF2065001F052FF4A214DF231
:10479000075001F04DFF00214DF2085001F048FF95
:1047A0005C214DF2095001F043FF00214DF20A5007
:1047B00001F03EFF81214DF20B5001F039FF002145
:1047C0004DF20C5001F034FFA6214DF20D5001F0D6
:1047D0002FFF00214DF20E5001F02AFFE5214DF28E
:1047E0000F5001F025FF01214DF2105001F020FF84
:1047F00013214DF2115001F01BFF01214DF2125017
:1048000001F016FF54214DF2135001F011FF012168
:104810004DF2145001F00CFF82214DF2155001F0C1
:1048200007FF01214DF2165001F002FFCA214DF29F
:10483000175001F0FDFE02214DF2185001F0F8FE74
:1048400000214DF2195001F0F3FE02214DF21A50F1
:1048500001F0EEFE01214DF21B5001F0E9FE0221B4
:104860004DF21C5001F0E4FE34214DF21D5001F0D8
:10487000DFFE02214DF21E5001F0DAFE67214DF2FB
:104880001F5001F0D5FE02214DF2205001F0D0FE64
:1048900084214DF2215001F0CBFE02214DF2225035
:1048A00001F0C6FEA4214DF2235001F0C1FE022109
:1048B0004DF2245001F0BCFEB7214DF2255001F01D
:1048C000B7FE02214DF2265001F0B2FECF214DF28B
:1048D000275001F0ADFE02214DF2285001F0A8FE54
:1048E000DE214DF2295001F0A3FE02214DF22A50A3
:1048F00001F09EFEF2214DF22B5001F099FE0221B3
:104900004DF22C5001F094FEFE214DF22D5001F09D
:104910008FFE03214DF22E5001F08AFE10214DF240
:104920002F5001F085FE03214DF2305001F080FE42
:1049300033214DF2315001F07BFE03214DF2325014
:1049400001F076FE6D214DF2335001F071FE002131
:104950004FF4564001F06CFE33214DF2016001F03E
:1049600067FE00214DF2026001F062FE34214DF23B
:10497000036001F05DFE00214DF2046001F058FE7D
:104980003A214DF2056001F053FE00214DF2066020
:1049900001F04EFE4A214DF2076001F049FE002170
:1049A0004DF2086001F044FE5C214DF2096001F017
:1049B0003FFE00214DF20A6001F03AFE81214DF2E6
:1049C0000B6001F035FE00214DF20C6001F030FE6D
:1049D000A6214DF20D6001F02BFE00214DF20E607C
:1049E00001F026FEE5214DF20F6001F021FE0121CC
:1049F0004DF2106001F01CFE13214DF2116001F028
:104A000017FE01214DF2126001F012FE54214DF209
:104A1000136001F00DFE01214DF2146001F008FE5B
:104A200082214DF2156001F003FE01214DF2166066
:104A300001F0FEFDCA214DF2176001F0F9FD0221DF
:104A40004DF2186001F0F4FD00214DF2196001F003
:104A5000EFFD02214DF21A6001F0EAFD01214DF255
:104A60001B6001F0E5FD02214DF21C6001F0E0FD4C
:104A700034214DF21D6001F0DBFD02214DF21E607C
:104A800001F0D6FD67214DF21F6001F0D1FD02213A
:104A90004DF2206001F0CCFD84214DF2216001F047
:104AA000C7FD02214DF2226001F0C2FDA4214DF2AA
:104AB000236001F0BDFD02214DF2246001F0B8FD3C
:104AC000B7214DF2256001F0B3FD02214DF22660C1
:104AD00001F0AEFDCF214DF2276001F0A9FD0221CA
:104AE0004DF2286001F0A4FDDE214DF2296001F0B5
:104AF0009FFD02214DF22A6001F09AFDF2214DF254
:104B00002B6001F095FD02214DF22C6001F090FD2B
:104B1000FE214DF22D6001F08BFD03214DF22E6040
:104B200001F086FD10214DF22F6001F081FD03217F
:104B30004DF2306001F07CFD33214DF2316001F027
:104B400077FD03214DF2326001F072FD6D214DF2CF
:104B5000336001F06DFD55214FF4704001F068FDA8
:104B6000AA214FF2010001F063FD52214FF2020031
:104B700001F05EFD08214FF2030001F059FD002114
:104B80004FF2040001F054FDCC214FF4314001F00C
:104B90004FFD00214BF2011001F04AFD05214FF4B9
:104BA000364001F045FD70214FF4374001F040FDE3
:104BB00070214BF2017001F03BFD01214FF43840B0
:104BC00001F036FD03214BF6010001F031FD032118
:104BD0004BF6020001F02CFD03214BF6030001F01F
:104BE00027FD02214FF43C4001F022FD00214BF64D
:104BF000014001F01DFD00214BF6024001F018FDBF
:104C0000D0214FF4494001F013FD02214CF6011070
:104C100001F00EFD50214CF6021001F009FD50216B
:104C20004CF6031001F004FD50214CF6041001F085
:104C3000FFFC00214FF4545001F0FAFC55214FF4D1
:104C4000685001F0F5FC4FF4885001F0DBFC78204F
:104C500005F0CCFA4FF4245001F0D4FC01F05EB919
:104C6000FE48808849F2253188427DD147F6F0011F
:104C7000E52001F0DDFC4FF48071012001F0D8FC4B
:104C80004FF4E061022001F0D3FC41F23001032037
:104C900001F0CEFC0021042001F0CAFC40F2022108
:104CA000082001F0C5FC0021092001F0C1FC002111
:104CB0000A2001F0BDFC00210C2001F0B9FC00210C
:104CC0000D2001F0B5FC00210F2001F0B1FC002106
:104CD000102001F0ADFC0721112001F0A9FC0021FA
:104CE000122001F0A5FC0021132001F0A1FC0021FD
:104CF000072001F09DFC41F29061102001F098FC2A
:104D000040F22721112001F093FC9D21122001F097
:104D10008FFC4FF4C851132001F08AFC2521292073
:104D200001F086FC0D212B2001F082FC07213020B0
:104D300001F07EFC40F20331312001F079FC0321C7
:104D4000322001F075FC40F20621352001F070FCA4
:104D50000821362001F06CFC40F20641372001F0BA
:104D600067FC4FF4417100E058E0382001F060FC2E
:104D70000721392001F05CFC40F202613C2001F087
:104D800057FC08213D2001F053FC0021502001F088
:104D90004FFCEF21512001F04BFC0021522001F08B
:104DA00047FC40F23F11532001F042FC4FF42741F1
:104DB000602001F03DFC0121612001F039FC00215F
:104DC0006A2001F035FC0021802001F031FC002137
:104DD000812001F02DFC0021822001F029FC00211E
:104DE000832001F025FC0021842001F021FC00211A
:104DF000852001F01DFC1021902001F019FC4FF4DA
:104E0000C061922001F014FC40F23311072001F040
:104E10000FFC2221002001F00BFC1FE78F48808847
:104E200049F2283188427DD141F28F01EC2001F016
:104E3000FFFB41F23421EF2001F0FAFB4FF48071C7
:104E4000012001F0F5FB4FF4E061022001F0F0FBDE
:104E500041F23001032001F0EBFB0021042001F0BE
:104E6000E7FB40F20221082001F0E2FB00210920CB
:104E700001F0DEFB00210A2001F0DAFB01210C2009
:104E800001F0D6FB00210D2001F0D2FB00210F2004
:104E900001F0CEFB0021102001F0CAFB07211120F8
:104EA00001F0C6FB0021122001F0C2FB00211320FB
:104EB00001F0BEFB0121072001F0BAFB322005F012
:104EC00079F941F29041102001F0B2FB40F2272124
:104ED000112001F0ADFB322005F06CF98A2112207F
:104EE00001F0A6FB322005F065F94FF4D0511320F4
:104EF00001F09EFB0621292001F09AFB0D212B20B9
:104F000001F096FB322005F055F90021202001F038
:104F10008FFB0021212001F08BFB322005F04AF9A4
:104F2000002100E075E0302001F082FB40F20461D6
:104F3000312001F07DFB40F20531322001F078FB99
:104F40000021352001F074FB40F60941362001F0C4
:104F50006FFB4FF40171372001F06AFB40F2013121
:104F6000382001F065FB40F20771392001F060FB49
:104F700000213C2001F05CFB40F60A213D2001F0BD
:104F800057FB322005F016F90021502001F050FBAC
:104F9000EF21512001F04CFB0021522001F048FB91
:104FA00040F23F11532001F043FB4FF427416020B2
:104FB00001F03EFB0121612001F03AFB00216A2053
:104FC00001F036FB0021802001F032FB002181201E
:104FD00001F02EFB0021822001F02AFB002183201A
:104FE00001F026FB0021842001F022FB0021852016
:104FF00001F01EFB1021902001F01AFB4FF4C0615C
:10500000922001F015FB40F23311072001F010FB54
:1050100024E61248808849F2203188427ED100215E
:10502000084601F005FB4FF48071012001F000FB00
:105030004FF4E061022001F0FBFA41F2300103205D
:1050400001F0F6FA0021042001F0F2FA40F2022108
:10505000082001F0EDFA0021092001E064010020A0
:1050600001F0E6FA00210A2001F0E2FA01210C2009
:1050700001F0DEFA00210D2001F0DAFA00210F2004
:1050800001F0D6FA322005F095F840F20111072020
:1050900001F0CEFA322005F08DF84FF48651102041
:1050A00001F0C6FA0721112001F0C2FA4FF488710D
:1050B000122001F0BDFA4FF43061132001F0B8FA6C
:1050C0000021292001F0B4FA44F210012B2001F054
:1050D000AFFA0021502001F0ABFAEF21512001F08E
:1050E000A7FA0021522001F0A3FA40F23F11532009
:1050F00001F09EFA4FF41C51602001F099FA012151
:10510000612001F095FA00216A2001F091FA002156
:10511000802001F08DFA0021812000E030E001F0D4
:1051200087FA0021822001F083FA0021832001F018
:105130007FFA0021842001F07BFA0021852001F014
:1051400077FA1021902001F073FA0021922001F0EB
:105150006FFA0121932001F06BFA4FF488719520CA
:1051600001F066FA0021972001F062FA00219820F0
:1051700001F05EFA40F27311072001F059FA6DE573
:10518000FE48808849F2313188427DD141F21401D4
:10519000E72001F04DFA4FF48071012001F048FA48
:1051A0004FF40071022001F043FA41F2380103206C
:1051B00001F03EFA40F20221082001F039FA002104
:1051C000092001F035FA00210A2001F031FA00210E
:1051D0000C2001F02DFA00210D2001F029FA002108
:1051E0000F2001F025FA0021102001F021FA0721FB
:1051F000112001F01DFA0021122001F019FA0021FE
:10520000132001F015FAC82004F0D4FF41F2906198
:10521000102001F00DFA40F22721112001F008FAC8
:10522000322004F0C7FF0C21122001F001FA3220D5
:1052300004F0C0FF4FF40061132001F0F9F91121CF
:10524000292001F0F5F90B212B2001F0F1F9322092
:1052500004F0B0FF0021202001F0EAF940F23F11F4
:10526000212001F0E5F90021302001F0E1F94FF4AF
:105270008371312001F0DCF90021322001F0D8F9EE
:105280004FF40171352000E064E001F0D1F941F202
:105290000A61362001F0CCF940F20771372001F0A5
:1052A000C7F94FF48371382001F0C2F940F2077159
:1052B000392001F0BDF940F202413C2001F0B8F97B
:1052C00040F60F413D2001F0B3F90021502001F0DC
:1052D000AFF9EF21512001F0ABF90021522001F08C
:1052E000A7F940F23F11532001F0A2F94FF41C51ED
:1052F000602001F09DF90121612001F099F9002160
:105300006A2001F095F90021802001F091F9002137
:10531000812001F08DF90021822001F089F900211E
:10532000832001F085F90021842001F081F900211A
:10533000852001F07DF91021902001F079F94FF4DA
:10534000C061922001F074F940F23311072001F09E
:105350006FF983E48948808845F2084188427DD10D
:105360004FF48071012001F063F94FF4E0610220F5
:1053700001F05EF941F23001032001F059F90021FA
:10538000042001F055F940F20721082001F050F9FE
:105390000021092001F04CF900210A2001F048F910
:1053A00000210C2001F044F900210D2001F040F90A
:1053B00000210F2001F03CF9142004F0FBFE41F223
:1053C000B061102001F034F90121112001F030F911
:1053D0000121172001F02CF94FF49C71122001F0EB
:1053E00027F94FF40061132001F022F90921292047
:1053F00001F01EF909212A2001F01AF90021A42048
:1054000001F016F90021502001F012F9EF2151208E
:1054100001F00EF90021522001F00AF940F23F118B
:10542000532001F005F94FF41C51602001F000F900
:105430000121612001F0FCF800216A2001F0F8F858
:105440000021802001F0F4F80021812001F0F0F823
:105450000021822001F0ECF8002100E024E083200C
:1054600001F0E6F80021842001F0E2F80021852017
:1054700001F0DEF81321902001F0DAF800219220EB
:1054800001F0D6F80321932001F0D2F84FF488718F
:10549000952001F0CDF840F27311072001F0C8F813
:1054A000322004F087FEB8E43448808841F2055188
:1054B00088427DD10021072001F0BAF8322004F0A3
:1054C00079FE4FF48E71122001F0B2F80121A42070
:1054D00001F0AEF80F21082001F0AAF808210A20F7
:1054E00001F0A6F808210D2001F0A2F840F20771A2
:1054F000302001F09DF80721312001F099F840F2A9
:105500000361322001F094F84FF4E061332001F0A0
:105510008FF840F20221342001F08AF80221352070
:1055200001F086F841F60F71362001F081F840F263
:105530000771372001F07CF80021382001F078F85D
:105540000021392001F074F840F207713A2001F08F
:105550006FF800213B2001F06BF807213C2001F09F
:1055600067F800213D2001F063F8322004F022FEAC
:105570000121072001F05CF8012101E06401002015
:10558000172001F055F8322004F014FE4FF4BD51FD
:10559000102001F04DF840F21721112001F048F8D9
:1055A0004FF48F71122001F043F84FF4706100E066
:1055B00098E0132001F03CF800212A2001F038F88F
:1055C0000A21292001F034F84FF49F71122001F0D4
:1055D0002FF80021502001F02BF8EF21512001F08D
:1055E00027F80021522001F023F840F23F11532008
:1055F00001F01EF84FF41C51602001F019F8012150
:10560000612001F015F800216A2001F011F8002155
:10561000802001F00DF80021812001F009F800211F
:10562000822001F005F80021832001F001F800211B
:10563000842000F0FDFF0021852000F0F9FF1321F8
:10564000902000F0F5FF4FF44071922000F0F0FF41
:105650000521932000F0ECFF0021952000F0E8FFE9
:105660000021972000F0E4FF0021982000F0E0FFE7
:105670004FF48071012000F0DBFF4FF4E061022065
:1056800000F0D6FF41F23801032000F0D1FF0021E5
:10569000042000F0CDFF00210C2000F0C9FF002104
:1056A0000F2000F0C5FF0021202000F0C1FF0021E5
:1056B000212000F0BDFF2121072000F0B9FF1420B8
:1056C00004F078FD6121072000F0B2FF142004F0FF
:1056D00071FD40F27311072000F0AAFF142004F0BE
:1056E00069FD95E4FE4880884BF2055188427CD1E3
:1056F0000021084600F09CFF0021084600F098FFBA
:105700000021084600F094FF0021084600F090FFB9
:105710000121A42000F08CFF142004F04BFD4FF475
:105720001C51602000F084FF40F20221082000F0AC
:105730007FFF4FF40571302000F07AFF43F21571BE
:10574000312000F075FF40F20461322000F070FF5C
:1057500040F61661332000F06BFF42F21121342035
:1057600000F066FF4FF4A851352000F061FF48F2C9
:105770000751362000F05CFF41F20741372000F06E
:1057800057FF41F20341382000F052FF2021392019
:1057900000F04EFF1A21902000F04AFF0021102057
:1057A00000F046FF0721112000F042FF00211220E7
:1057B00000F03EFF0021132000F03AFF142004F017
:1057C000F9FC4FF4E661102000F032FF40F237118F
:1057D000112000F02DFF142004F0ECFC4FF4DC71DC
:1057E000122000F025FF142000E085E004F0E2FC28
:1057F0004FF47061132000F01BFF80212A2000F07D
:1058000017FF4821292000F013FF142004F0D2FCD8
:105810004FF48071012000F00BFF4FF4E061022093
:1058200000F006FF41F23801032000F001FF40F2D2
:105830000221082000F0FCFE00210A2000F0F8FE02
:1058400000210C2000F0F4FE00210D2000F0F0FEFD
:1058500030210E2000F0ECFE0021502000F0E8FE88
:10586000EF21512000F0E4FE0021522000F0E0FE84
:1058700040F23F11532000F0DBFE4FF41C5160203A
:1058800000F0D6FE0121612000F0D2FE00216A2046
:1058900000F0CEFE1121902000F0CAFE4FF4C0614E
:1058A000922000F0C5FE40F20241932000F0C0FEBD
:1058B0000221942000F0BCFE142004F07BFC0121A6
:1058C000072000F0B5FE142004F074FC61210720CD
:1058D00000F0AEFE40F27311072000F0A9FE002197
:1058E000202000F0A5FE0021212000F0A1FE2221B1
:1058F000002000F09DFE11E3794880884CF20551AC
:1059000088427CD10021084600F092FE0021084622
:1059100000F08EFE142004F04DFC0021084600F03B
:1059200087FE0021084600F083FE0021084600F0B3
:105930007FFE0021084600F07BFE0121A42000F03C
:1059400077FE142004F036FC4FF41C51602000F068
:105950006FFE40F60601082000F06AFE40F2037177
:10596000302000F065FE0121312000F061FE0421AD
:10597000322000F05DFE4FF48171332000F058FEBC
:105980004FF44071342000F053FE40F203113520F3
:1059900000F04EFE1F21362000F04AFE40F2037157
:1059A000372000F045FE0121382000F041FE04219F
:1059B000392000F03DFE1521902000F039FE4FF413
:1059C0008261102000F034FE40F24721112000F0E7
:1059D0002FFE4FF4DE71122000F02AFE4FF46061BA
:1059E000132000F025FE782004F0E4FB4FF48071D2
:1059F000012000F01DFE4FF40071022000E052E093
:105A000000F016FE41F23001032000F011FE0821E3
:105A10000A2000F00DFE00210C2000F009FE2021DC
:105A20000E2000F005FE00210F2000F001FE0021F5
:105A3000202000F0FDFD0021212000F0F9FD3D2196
:105A40002A2000F0F5FD142004F0B4FB2D212920BC
:105A500000F0EEFD0021502000F0EAFD4DF2EF01D4
:105A6000512000F0E5FD0021522000F0E1FD40F260
:105A70003F11532000F0DCFD0021612000F0D8FD33
:105A800000216A2000F0D4FD4FF44071922000F014
:105A9000CFFD0521932000F0CBFD4FF4807107204E
:105AA00000F0C6FD3AE20E48808844F23151884247
:105AB0007ED10121002000F0BBFD0A2004F07AFB1A
:105AC00041F22861102000F0B3FD0E21122000F0F9
:105AD000AFFD40F63921132000F0AAFD0A2001E0B5
